{"abi":[{"type":"constructor","inputs":[{"name":"eip712Name","type":"string","internalType":"string"},{"name":"eip712Version","type":"string","internalType":"string"},{"name":"stakeMessage","type":"string","internalType":"string"},{"name":"name","type":"string","internalType":"string"},{"name":"symbol","type":"string","internalType":"string"},{"name":"rewardToken","type":"address","internalType":"contract IERC20"},{"name":"stakeToken","type":"address","internalType":"contract IERC20"},{"name":"distributor","type":"address","internalType":"address"},{"name":"snapshotDelay","type":"uint256","internalType":"uint256"}],"stateMutability":"nonpayable"},{"type":"function","name":"accrue","inputs":[{"name":"amount","type":"uint256","internalType":"uint256"}],"outputs":[],"stateMutability":"nonpayable"},{"type":"function","name":"allowance","inputs":[{"name":"owner","type":"address","internalType":"address"},{"name":"spender","type":"address","internalType":"address"}],"outputs":[{"name":"","type":"uint256","internalType":"uint256"}],"stateMutability":"view"},{"type":"function","name":"approve","inputs":[{"name":"spender","type":"address","internalType":"address"},{"name":"amount","type":"uint256","internalType":"uint256"}],"outputs":[{"name":"","type":"bool","internalType":"bool"}],"stateMutability":"nonpayable"},{"type":"function","name":"approveStaker","inputs":[{"name":"_signature","type":"bytes","internalType":"bytes"}],"outputs":[],"stateMutability":"nonpayable"},{"type":"function","name":"balanceOf","inputs":[{"name":"account","type":"address","internalType":"address"}],"outputs":[{"name":"","type":"uint256","internalType":"uint256"}],"stateMutability":"view"},{"type":"function","name":"balanceOfAt","inputs":[{"name":"account","type":"address","internalType":"address"},{"name":"snapshotId","type":"uint256","internalType":"uint256"}],"outputs":[{"name":"","type":"uint256","internalType":"uint256"}],"stateMutability":"view"},{"type":"function","name":"canAccrue","inputs":[],"outputs":[{"name":"","type":"bool","internalType":"bool"}],"stateMutability":"view"},{"type":"function","name":"claim","inputs":[],"outputs":[],"stateMutability":"nonpayable"},{"type":"function","name":"claimPartial","inputs":[{"name":"startSnapshotId","type":"uint256","internalType":"uint256"},{"name":"endSnapshotId","type":"uint256","internalType":"uint256"}],"outputs":[],"stateMutability":"nonpayable"},{"type":"function","name":"decimals","inputs":[],"outputs":[{"name":"","type":"uint8","internalType":"uint8"}],"stateMutability":"view"},{"type":"function","name":"decreaseAllowance","inputs":[{"name":"spender","type":"address","internalType":"address"},{"name":"subtractedValue","type":"uint256","internalType":"uint256"}],"outputs":[{"name":"","type":"bool","internalType":"bool"}],"stateMutability":"nonpayable"},{"type":"function","name":"distributor","inputs":[],"outputs":[{"name":"","type":"address","internalType":"address"}],"stateMutability":"view"},{"type":"function","name":"eip712Domain","inputs":[],"outputs":[{"name":"fields","type":"bytes1","internalType":"bytes1"},{"name":"name","type":"string","internalType":"string"},{"name":"version","type":"string","internalType":"string"},{"name":"chainId","type":"uint256","internalType":"uint256"},{"name":"verifyingContract","type":"address","internalType":"address"},{"name":"salt","type":"bytes32","internalType":"bytes32"},{"name":"extensions","type":"uint256[]","internalType":"uint256[]"}],"stateMutability":"view"},{"type":"function","name":"getCurrentSnapshotId","inputs":[],"outputs":[{"name":"","type":"uint256","internalType":"uint256"}],"stateMutability":"view"},{"type":"function","name":"getLifetimeRewards","inputs":[{"name":"account","type":"address","internalType":"address"}],"outputs":[{"name":"","type":"uint256","internalType":"uint256"}],"stateMutability":"view"},{"type":"function","name":"getPendingRewards","inputs":[{"name":"account","type":"address","internalType":"address"}],"outputs":[{"name":"","type":"uint256","internalType":"uint256"}],"stateMutability":"view"},{"type":"function","name":"getRewardSnapshots","inputs":[],"outputs":[{"name":"","type":"uint256[]","internalType":"uint256[]"}],"stateMutability":"view"},{"type":"function","name":"getStakeSignatureDigest","inputs":[],"outputs":[{"name":"","type":"bytes32","internalType":"bytes32"}],"stateMutability":"view"},{"type":"function","name":"getTimeUntilNextSnapshot","inputs":[],"outputs":[{"name":"","type":"uint256","internalType":"uint256"}],"stateMutability":"view"},{"type":"function","name":"increaseAllowance","inputs":[{"name":"spender","type":"address","internalType":"address"},{"name":"addedValue","type":"uint256","internalType":"uint256"}],"outputs":[{"name":"","type":"bool","internalType":"bool"}],"stateMutability":"nonpayable"},{"type":"function","name":"isApprovedStaker","inputs":[{"name":"","type":"address","internalType":"address"}],"outputs":[{"name":"","type":"bool","internalType":"bool"}],"stateMutability":"view"},{"type":"function","name":"lastSnapshotTime","inputs":[],"outputs":[{"name":"","type":"uint256","internalType":"uint256"}],"stateMutability":"view"},{"type":"function","name":"message","inputs":[],"outputs":[{"name":"","type":"string","internalType":"string"}],"stateMutability":"view"},{"type":"function","name":"name","inputs":[],"outputs":[{"name":"","type":"string","internalType":"string"}],"stateMutability":"view"},{"type":"function","name":"nextClaimId","inputs":[{"name":"","type":"address","internalType":"address"}],"outputs":[{"name":"","type":"uint256","internalType":"uint256"}],"stateMutability":"view"},{"type":"function","name":"owner","inputs":[],"outputs":[{"name":"","type":"address","internalType":"address"}],"stateMutability":"view"},{"type":"function","name":"renounceOwnership","inputs":[],"outputs":[],"stateMutability":"nonpayable"},{"type":"function","name":"rewardAt","inputs":[{"name":"snapshotId","type":"uint256","internalType":"uint256"}],"outputs":[{"name":"","type":"uint256","internalType":"uint256"}],"stateMutability":"view"},{"type":"function","name":"rewardOfAt","inputs":[{"name":"account","type":"address","internalType":"address"},{"name":"snapshotId","type":"uint256","internalType":"uint256"}],"outputs":[{"name":"","type":"uint256","internalType":"uint256"}],"stateMutability":"view"},{"type":"function","name":"rewardOfInRange","inputs":[{"name":"account","type":"address","internalType":"address"},{"name":"startSnapshotId","type":"uint256","internalType":"uint256"},{"name":"endSnapshotId","type":"uint256","internalType":"uint256"}],"outputs":[{"name":"","type":"uint256","internalType":"uint256"}],"stateMutability":"view"},{"type":"function","name":"rewardSnapshots","inputs":[{"name":"","type":"uint256","internalType":"uint256"}],"outputs":[{"name":"","type":"uint256","internalType":"uint256"}],"stateMutability":"view"},{"type":"function","name":"rewardToken","inputs":[],"outputs":[{"name":"","type":"address","internalType":"contract IERC20"}],"stateMutability":"view"},{"type":"function","name":"setDistributor","inputs":[{"name":"newDistributor","type":"address","internalType":"address"}],"outputs":[],"stateMutability":"nonpayable"},{"type":"function","name":"setSnapshotDelay","inputs":[{"name":"newSnapshotDelay","type":"uint256","internalType":"uint256"}],"outputs":[],"stateMutability":"nonpayable"},{"type":"function","name":"snapshotDelay","inputs":[],"outputs":[{"name":"","type":"uint256","internalType":"uint256"}],"stateMutability":"view"},{"type":"function","name":"stake","inputs":[{"name":"_amount","type":"uint256","internalType":"uint256"},{"name":"_signature","type":"bytes","internalType":"bytes"}],"outputs":[],"stateMutability":"nonpayable"},{"type":"function","name":"stake","inputs":[{"name":"_amount","type":"uint256","internalType":"uint256"}],"outputs":[],"stateMutability":"nonpayable"},{"type":"function","name":"stakeToken","inputs":[],"outputs":[{"name":"","type":"address","internalType":"contract IERC20"}],"stateMutability":"view"},{"type":"function","name":"symbol","inputs":[],"outputs":[{"name":"","type":"string","internalType":"string"}],"stateMutability":"view"},{"type":"function","name":"totalSupply","inputs":[],"outputs":[{"name":"","type":"uint256","internalType":"uint256"}],"stateMutability":"view"},{"type":"function","name":"totalSupplyAt","inputs":[{"name":"snapshotId","type":"uint256","internalType":"uint256"}],"outputs":[{"name":"","type":"uint256","internalType":"uint256"}],"stateMutability":"view"},{"type":"function","name":"transfer","inputs":[{"name":"","type":"address","internalType":"address"},{"name":"","type":"uint256","internalType":"uint256"}],"outputs":[{"name":"","type":"bool","internalType":"bool"}],"stateMutability":"pure"},{"type":"function","name":"transferFrom","inputs":[{"name":"","type":"address","internalType":"address"},{"name":"","type":"address","internalType":"address"},{"name":"","type":"uint256","internalType":"uint256"}],"outputs":[{"name":"","type":"bool","internalType":"bool"}],"stateMutability":"pure"},{"type":"function","name":"transferOwnership","inputs":[{"name":"newOwner","type":"address","internalType":"address"}],"outputs":[],"stateMutability":"nonpayable"},{"type":"function","name":"unstake","inputs":[{"name":"amount","type":"uint256","internalType":"uint256"}],"outputs":[],"stateMutability":"nonpayable"},{"type":"event","name":"Approval","inputs":[{"name":"owner","type":"address","indexed":true,"internalType":"address"},{"name":"spender","type":"address","indexed":true,"internalType":"address"},{"name":"value","type":"uint256","indexed":false,"internalType":"uint256"}],"anonymous":false},{"type":"event","name":"DistributorChanged","inputs":[{"name":"newDistributor","type":"address","indexed":false,"internalType":"address"}],"anonymous":false},{"type":"event","name":"EIP712DomainChanged","inputs":[],"anonymous":false},{"type":"event","name":"OwnershipTransferred","inputs":[{"name":"previousOwner","type":"address","indexed":true,"internalType":"address"},{"name":"newOwner","type":"address","indexed":true,"internalType":"address"}],"anonymous":false},{"type":"event","name":"Snapshot","inputs":[{"name":"id","type":"uint256","indexed":false,"internalType":"uint256"}],"anonymous":false},{"type":"event","name":"SnapshotDelayChanged","inputs":[{"name":"newSnapshotDelay","type":"uint256","indexed":false,"internalType":"uint256"}],"anonymous":false},{"type":"event","name":"StakerApproved","inputs":[{"name":"staker","type":"address","indexed":true,"internalType":"address"}],"anonymous":false},{"type":"event","name":"Transfer","inputs":[{"name":"from","type":"address","indexed":true,"internalType":"address"},{"name":"to","type":"address","indexed":true,"internalType":"address"},{"name":"value","type":"uint256","indexed":false,"internalType":"uint256"}],"anonymous":false},{"type":"error","name":"CannotAccrueWithZeroStakedSupply","inputs":[]},{"type":"error","name":"CannotAccrueZero","inputs":[]},{"type":"error","name":"CannotClaimFromPastSnapshots","inputs":[]},{"type":"error","name":"InvalidShortString","inputs":[]},{"type":"error","name":"InvalidSignature","inputs":[]},{"type":"error","name":"InvalidSnapshotId","inputs":[]},{"type":"error","name":"MustBeDistributor","inputs":[]},{"type":"error","name":"NonExistentSnapshotId","inputs":[]},{"type":"error","name":"NotApprovedStaker","inputs":[]},{"type":"error","name":"SnapshotDelayNotPassed","inputs":[]},{"type":"error","name":"StringTooLong","inputs":[{"name":"str","type":"string","internalType":"string"}]},{"type":"error","name":"TransfersNotAllowed","inputs":[]}],"bytecode":{"object":"0x6101a06040523480156200001257600080fd5b5060405162002b8938038062002b89833981016040819052620000359162000334565b888887878787878785856200004a3362000175565b6004620000588382620004e8565b506005620000678282620004e8565b50506001600a55506001600160a01b0393841660805291831660a052600b80546001600160a01b0319169190931617909155600e5550620000ac9050826010620001c5565b61016052620000bd816011620001c5565b61018052815160208084019190912061012052815190820120610140524660e0526200014d6101205161014051604080517f8b73c3c69bb8fe3d512ecc4cf759cc79239f7b179b0ffacaa9a75d522b39400f60208201529081019290925260608201524660808201523060a082015260009060c00160405160208183030381529060405280519060200120905090565b60c052505030610100526012620001658882620004e8565b505050505050505050506200060e565b600080546001600160a01b038381166001600160a01b0319831681178455604051919092169283917f8be0079c531659141344cd1fd0a4f28419497f9722a3daafe3b4186f6b6457e09190a35050565b6000602083511015620001e557620001dd83620001fe565b9050620001f8565b81620001f28482620004e8565b5060ff90505b92915050565b600080829050601f8151111562000235578260405163305a27a960e01b81526004016200022c9190620005b4565b60405180910390fd5b80516200024282620005e9565b179392505050565b634e487b7160e01b600052604160045260246000fd5b60005b838110156200027d57818101518382015260200162000263565b50506000910152565b600082601f8301126200029857600080fd5b81516001600160401b0380821115620002b557620002b56200024a565b604051601f8301601f19908116603f01168101908282118183101715620002e057620002e06200024a565b81604052838152866020858801011115620002fa57600080fd5b6200030d84602083016020890162000260565b9695505050505050565b80516001600160a01b03811681146200032f57600080fd5b919050565b60008060008060008060008060006101208a8c0312156200035457600080fd5b89516001600160401b03808211156200036c57600080fd5b6200037a8d838e0162000286565b9a5060208c01519150808211156200039157600080fd5b6200039f8d838e0162000286565b995060408c0151915080821115620003b657600080fd5b620003c48d838e0162000286565b985060608c0151915080821115620003db57600080fd5b620003e98d838e0162000286565b975060808c01519150808211156200040057600080fd5b506200040f8c828d0162000286565b9550506200042060a08b0162000317565b93506200043060c08b0162000317565b92506200044060e08b0162000317565b91506101008a015190509295985092959850929598565b600181811c908216806200046c57607f821691505b6020821081036200048d57634e487b7160e01b600052602260045260246000fd5b50919050565b601f821115620004e3576000816000526020600020601f850160051c81016020861015620004be5750805b601f850160051c820191505b81811015620004df57828155600101620004ca565b5050505b505050565b81516001600160401b038111156200050457620005046200024a565b6200051c8162000515845462000457565b8462000493565b602080601f8311600181146200055457600084156200053b5750858301515b600019600386901b1c1916600185901b178555620004df565b600085815260208120601f198616915b82811015620005855788860151825594840194600190910190840162000564565b5085821015620005a45787850151600019600388901b60f8161c191681555b5050505050600190811b01905550565b6020815260008251806020840152620005d581604085016020870162000260565b601f01601f19169190910160400192915050565b805160208083015191908110156200048d5760001960209190910360031b1b16919050565b60805160a05160c05160e05161010051610120516101405161016051610180516124ee6200069b6000396000610cdf01526000610cb401526000611c1001526000611be801526000611b4301526000611b6d01526000611b970152600081816103bd0152818161076201526113510152600081816105db01528181610aa401526115b901526124ee6000f3fe608060405234801561001057600080fd5b506004361061027f5760003560e01c8063744f4cf61161015c578063a694fc3a116100ce578063dd62ed3e11610087578063dd62ed3e1461058d578063e21f37ce146105a0578063ed56e430146105a8578063f2fde38b146105b0578063f6ed2017146105c3578063f7c618c1146105d657600080fd5b8063a694fc3a14610535578063a9059cbb14610548578063be74baf214610556578063bfe109281461055f578063c2d4413c14610572578063c70299991461058557600080fd5b806384b0196e1161012057806384b0196e146104c65780638da5cb5b146104e15780639320e605146104f257806395d89b4114610507578063981b24d01461050f578063a457c2d71461052257600080fd5b8063744f4cf61461046757806375619ab51461047a5780637c4e4ab31461048d5780637d3f0e7d146104a05780637e9d05f7146104b357600080fd5b80634854424e116101f55780635c1b6119116101b95780635c1b6119146103ff5780635d648588146104125780635e94d4e8146104255780636afc62e41461042e57806370a0823114610436578063715018a61461045f57600080fd5b80634854424e1461038a5780634e71d92d1461039d5780634ee2cd7e146103a557806351ed6a30146103b85780635439ad86146103f757600080fd5b80632ad2b7e1116102475780632ad2b7e1146102ff5780632e17de7814610312578063313ce56714610325578063357f5d7a14610334578063395093511461035457806342f667ec1461036757600080fd5b806306fdde0314610284578063095ea7b3146102a25780630e89439b146102c557806318160ddd146102da57806323b872dd146102ec575b600080fd5b61028c6105fd565b6040516102999190611fd8565b60405180910390f35b6102b56102b0366004612002565b61068f565b6040519015158152602001610299565b6102d86102d336600461206e565b6106a9565b005b6003545b604051908152602001610299565b6102b56102fa3660046120ba565b6106d5565b6102d861030d3660046120f6565b6106f0565b6102d86103203660046120f6565b610734565b60405160128152602001610299565b6102de61034236600461210f565b600c6020526000908152604090205481565b6102b5610362366004612002565b6107e5565b6102b561037536600461210f565b60136020526000908152604090205460ff1681565b6102d861039836600461212a565b610807565b6102d8610858565b6102de6103b3366004612002565b610896565b6103df7f000000000000000000000000000000000000000000000000000000000000000081565b6040516001600160a01b039091168152602001610299565b6102de6108ef565b6102d861040d36600461214c565b6108fe565b6102de6104203660046120f6565b610909565b6102de600e5481565b6102de61092a565b6102de61044436600461210f565b6001600160a01b031660009081526001602052604090205490565b6102d86109d4565b6102d86104753660046120f6565b6109e6565b6102d861048836600461210f565b610b5b565b6102de61049b36600461218e565b610bb1565b6102de6104ae36600461210f565b610c42565b6102de6104c13660046120f6565b610c52565b6104ce610ca6565b60405161029997969594939291906121fd565b6000546001600160a01b03166103df565b6104fa610d2f565b604051610299919061226d565b61028c610d86565b6102de61051d3660046120f6565b610d95565b6102b5610530366004612002565b610dc0565b6102d86105433660046120f6565b610e4b565b6102b56102fa366004612002565b6102de600f5481565b600b546103df906001600160a01b031681565b6102de610580366004612002565b610e97565b6102b5610ef3565b6102de61059b366004612280565b610f0d565b61028c610f38565b6102de610fc6565b6102d86105be36600461210f565b610ff6565b6102de6105d136600461210f565b61106c565b6103df7f000000000000000000000000000000000000000000000000000000000000000081565b60606004805461060c906122b3565b80601f0160208091040260200160405190810160405280929190818152602001828054610638906122b3565b80156106855780601f1061065a57610100808354040283529160200191610685565b820191906000526020600020905b81548152906001019060200180831161066857829003601f168201915b5050505050905090565b60003361069d81858561109e565b60019150505b92915050565b6106b16111c2565b6106bc33838361121b565b6106c633846112ce565b6106d06001600a55565b505050565b600060405163ab064ad360e01b815260040160405180910390fd5b6106f86113c9565b600e8190556040518181527fac73a90e92241d825f00fe635380c3a52d9764a66fe05df6ba465ca269cdcf8e906020015b60405180910390a150565b61073c6111c2565b6107463382611423565b60405163a9059cbb60e01b8152336004820152602481018290527f00000000000000000000000000000000000000000000000000000000000000006001600160a01b03169063a9059cbb906044016020604051808303816000875af11580156107b3573d6000803e3d6000fd5b505050506040513d601f19601f820116820180604052508101906107d791906122ed565b506107e26001600a55565b50565b60003361069d8185856107f88383610f0d565b6108029190612325565b61109e565b61080f6111c2565b336000908152600c602052604090205482101561083f5760405163045587fd60e31b815260040160405180910390fd5b61084a338383611563565b6108546001600a55565b5050565b6108606111c2565b600061086a61162d565b336000818152600c6020526040902054919250610888908284611563565b50506108946001600a55565b565b6001600160a01b0382166000908152600660205260408120819081906108bd908590611638565b91509150816108e4576001600160a01b0385166000908152600160205260409020546108e6565b805b95945050505050565b60006108f961162d565b905090565b61085433838361121b565b600d818154811061091957600080fd5b600091825260209091200154905081565b60006108f96040518060400160405280601c81526020017f5374616b654d65737361676528737472696e67206d65737361676529000000008152506040516020016109759190612338565b60405160208183030381529060405280519060200120601260405161099a9190612354565b6040519081900381206109b99291602001918252602082015260400190565b6040516020818303038152906040528051906020012061172e565b6109dc6113c9565b610894600061175b565b6109ee6111c2565b600b546001600160a01b03163314610a195760405163086bf14760e21b815260040160405180910390fd5b80600003610a3a5760405163010cb85960e41b815260040160405180910390fd5b600354600003610a5d57604051630355041f60e11b815260040160405180910390fd5b610a65610ef3565b610a8257604051636f407c6b60e11b815260040160405180910390fd5b6040516323b872dd60e01b8152336004820152306024820152604481018290527f00000000000000000000000000000000000000000000000000000000000000006001600160a01b0316906323b872dd906064016020604051808303816000875af1158015610af5573d6000803e3d6000fd5b505050506040513d601f19601f82011682018060405250810190610b1991906122ed565b5042600f55600d80546001810182556000919091527fd7b6990105719101dabeb77144f2a3385c8033acd3af97e9423a695e81ad1eb5018190556107d76117ab565b610b636113c9565b600b80546001600160a01b0319166001600160a01b0383169081179091556040519081527fe37acc13f5ed9d0cc83c2842e093fe5a494d5b8fb5b1db06356b327081832f5290602001610729565b600082600003610bd4576040516342f66ec960e01b815260040160405180910390fd5b81831180610be85750610be561162d565b82115b15610c0657604051630ea8635b60e41b815260040160405180910390fd5b6000835b838111610c3957610c1b8682611805565b610c259083612325565b915080610c31816123f5565b915050610c0a565b50949350505050565b60006106a382600161049b61162d565b600081600003610c75576040516342f66ec960e01b815260040160405180910390fd5b610c7d61162d565b821115610c9d57604051630ea8635b60e41b815260040160405180910390fd5b6106a382611837565b600060608082808083610cda7f00000000000000000000000000000000000000000000000000000000000000006010611868565b610d057f00000000000000000000000000000000000000000000000000000000000000006011611868565b60408051600080825260208201909252600f60f81b9b939a50919850469750309650945092509050565b6060600d80548060200260200160405190810160405280929190818152602001828054801561068557602002820191906000526020600020905b815481526020019060010190808311610d69575050505050905090565b60606005805461060c906122b3565b6000806000610da5846007611638565b9150915081610db657600354610db8565b805b949350505050565b60003381610dce8286610f0d565b905083811015610e335760405162461bcd60e51b815260206004820152602560248201527f45524332303a2064656372656173656420616c6c6f77616e63652062656c6f77604482015264207a65726f60d81b60648201526084015b60405180910390fd5b610e40828686840361109e565b506001949350505050565b610e536111c2565b3360009081526013602052604090205460ff16610e8357604051630e56a41760e31b815260040160405180910390fd5b610e8d33826112ce565b6107e26001600a55565b600081600003610eba576040516342f66ec960e01b815260040160405180910390fd5b610ec261162d565b821115610ee257604051630ea8635b60e41b815260040160405180910390fd5b610eec8383611805565b9392505050565b6000600e54600f54610f059190612325565b421015905090565b6001600160a01b03918216600090815260026020908152604080832093909416825291909152205490565b60128054610f45906122b3565b80601f0160208091040260200160405190810160405280929190818152602001828054610f71906122b3565b8015610fbe5780601f10610f9357610100808354040283529160200191610fbe565b820191906000526020600020905b815481529060010190602001808311610fa157829003601f168201915b505050505081565b6000610fd0610ef3565b15610fdb5750600090565b42600e54600f54610fec9190612325565b6108f9919061240e565b610ffe6113c9565b6001600160a01b0381166110635760405162461bcd60e51b815260206004820152602660248201527f4f776e61626c653a206e6577206f776e657220697320746865207a65726f206160448201526564647265737360d01b6064820152608401610e2a565b6107e28161175b565b60008061107761162d565b6001600160a01b0384166000908152600c6020526040902054909150610db8848284610bb1565b6001600160a01b0383166111005760405162461bcd60e51b8152602060048201526024808201527f45524332303a20617070726f76652066726f6d20746865207a65726f206164646044820152637265737360e01b6064820152608401610e2a565b6001600160a01b0382166111615760405162461bcd60e51b815260206004820152602260248201527f45524332303a20617070726f766520746f20746865207a65726f206164647265604482015261737360f01b6064820152608401610e2a565b6001600160a01b0383811660008181526002602090815260408083209487168084529482529182902085905590518481527f8c5be1e5ebec7d5bd14f71427d1e84f3dd0314c0f7b2291e5b200ac8c7c3b925910160405180910390a3505050565b6002600a54036112145760405162461bcd60e51b815260206004820152601f60248201527f5265656e7472616e637947756172643a207265656e7472616e742063616c6c006044820152606401610e2a565b6002600a55565b6112638361122761092a565b84848080601f01602080910402602001604051908101604052809392919081815260200183838082843760009201919091525061191392505050565b61128057604051638baa579f60e01b815260040160405180910390fd5b6001600160a01b038316600081815260136020526040808220805460ff19166001179055517fdad95f091b1c8a016983f3274e809d4365bf521cfb310b8fbdac95814601c6d89190a2505050565b6001600160a01b0382166000908152600c602052604081205490036113255760006112f761162d565b90506000811161130857600161130a565b805b6001600160a01b0384166000908152600c6020526040902055505b6040516323b872dd60e01b81526001600160a01b038381166004830152306024830152604482018390527f000000000000000000000000000000000000000000000000000000000000000016906323b872dd906064016020604051808303816000875af115801561139a573d6000803e3d6000fd5b505050506040513d601f19601f820116820180604052508101906113be91906122ed565b506108543382611974565b6000546001600160a01b031633146108945760405162461bcd60e51b815260206004820181905260248201527f4f776e61626c653a2063616c6c6572206973206e6f7420746865206f776e65726044820152606401610e2a565b6001600160a01b0382166114835760405162461bcd60e51b815260206004820152602160248201527f45524332303a206275726e2066726f6d20746865207a65726f206164647265736044820152607360f81b6064820152608401610e2a565b61148f82600083611a41565b6001600160a01b038216600090815260016020526040902054818110156115035760405162461bcd60e51b815260206004820152602260248201527f45524332303a206275726e20616d6f756e7420657863656564732062616c616e604482015261636560f01b6064820152608401610e2a565b6001600160a01b03831660008181526001602090815260408083208686039055600380548790039055518581529192917fddf252ad1be2c89b69c2b068fc378daa952ba7f163c4a11628f55a4df523b3ef910160405180910390a3505050565b6000611570848484610bb1565b905061157d826001612325565b6001600160a01b038581166000818152600c60205260409081902093909355915163a9059cbb60e01b81526004810192909252602482018390527f0000000000000000000000000000000000000000000000000000000000000000169063a9059cbb906044016020604051808303816000875af1158015611602573d6000803e3d6000fd5b505050506040513d601f19601f8201168201806040525081019061162691906122ed565b5050505050565b60006108f960095490565b600080600084116116845760405162461bcd60e51b815260206004820152601660248201527504552433230536e617073686f743a20696420697320360541b6044820152606401610e2a565b61168c61162d565b8411156116db5760405162461bcd60e51b815260206004820152601d60248201527f4552433230536e617073686f743a206e6f6e6578697374656e742069640000006044820152606401610e2a565b60006116e78486611a89565b845490915081036116ff576000809250925050611727565b600184600101828154811061171657611716612421565b906000526020600020015492509250505b9250929050565b60006106a361173b611b36565b8360405161190160f01b8152600281019290925260228201526042902090565b600080546001600160a01b038381166001600160a01b0319831681178455604051919092169283917f8be0079c531659141344cd1fd0a4f28419497f9722a3daafe3b4186f6b6457e09190a35050565b60006117bb600980546001019055565b60006117c561162d565b90507f8030e83b04d87bef53480e26263266d6ca66863aa8506aca6f2559d18aa1cb67816040516117f891815260200190565b60405180910390a1919050565b600061181082610d95565b61181a8484610896565b61182384611837565b61182d9190612437565b610eec919061244e565b6000600d61184660018461240e565b8154811061185657611856612421565b90600052602060002001549050919050565b606060ff83146118825761187b83611c61565b90506106a3565b81805461188e906122b3565b80601f01602080910402602001604051908101604052809291908181526020018280546118ba906122b3565b80156119075780601f106118dc57610100808354040283529160200191611907565b820191906000526020600020905b8154815290600101906020018083116118ea57829003601f168201915b505050505090506106a3565b60008060006119228585611ca0565b9092509050600081600481111561193b5761193b612470565b1480156119595750856001600160a01b0316826001600160a01b0316145b8061196a575061196a868686611ce2565b9695505050505050565b6001600160a01b0382166119ca5760405162461bcd60e51b815260206004820152601f60248201527f45524332303a206d696e7420746f20746865207a65726f2061646472657373006044820152606401610e2a565b6119d660008383611a41565b80600360008282546119e89190612325565b90915550506001600160a01b0382166000818152600160209081526040808320805486019055518481527fddf252ad1be2c89b69c2b068fc378daa952ba7f163c4a11628f55a4df523b3ef910160405180910390a35050565b6001600160a01b038316611a6057611a5882611dce565b6106d0611e01565b6001600160a01b038216611a7757611a5883611dce565b611a8083611dce565b6106d082611dce565b81546000908103611a9c575060006106a3565b82546000905b80821015611ae9576000611ab68383611e0f565b60008781526020902090915085908201541115611ad557809150611ae3565b611ae0816001612325565b92505b50611aa2565b600082118015611b15575083611b1286611b0460018661240e565b600091825260209091200190565b54145b15611b2e57611b2560018361240e565b925050506106a3565b5090506106a3565b6000306001600160a01b037f000000000000000000000000000000000000000000000000000000000000000016148015611b8f57507f000000000000000000000000000000000000000000000000000000000000000046145b15611bb957507f000000000000000000000000000000000000000000000000000000000000000090565b6108f9604080517f8b73c3c69bb8fe3d512ecc4cf759cc79239f7b179b0ffacaa9a75d522b39400f60208201527f0000000000000000000000000000000000000000000000000000000000000000918101919091527f000000000000000000000000000000000000000000000000000000000000000060608201524660808201523060a082015260009060c00160405160208183030381529060405280519060200120905090565b60606000611c6e83611e2a565b604080516020808252818301909252919250600091906020820181803683375050509182525060208101929092525090565b6000808251604103611cd65760208301516040840151606085015160001a611cca87828585611e52565b94509450505050611727565b50600090506002611727565b6000806000856001600160a01b0316631626ba7e60e01b8686604051602401611d0c929190612486565b60408051601f198184030181529181526020820180516001600160e01b03166001600160e01b0319909416939093179092529051611d4a9190612338565b600060405180830381855afa9150503d8060008114611d85576040519150601f19603f3d011682016040523d82523d6000602084013e611d8a565b606091505b5091509150818015611d9e57506020815110155b801561196a57508051630b135d3f60e11b90611dc3908301602090810190840161249f565b149695505050505050565b6001600160a01b03811660009081526006602090815260408083206001909252909120546107e29190611f16565b611f16565b6108946007611dfc60035490565b6000611e1e600284841861244e565b610eec90848416612325565b600060ff8216601f8111156106a357604051632cd44ac360e21b815260040160405180910390fd5b6000807f7fffffffffffffffffffffffffffffff5d576e7357a4501ddfe92f46681b20a0831115611e895750600090506003611f0d565b6040805160008082526020820180845289905260ff881692820192909252606081018690526080810185905260019060a0016020604051602081039080840390855afa158015611edd573d6000803e3d6000fd5b5050604051601f1901519150506001600160a01b038116611f0657600060019250925050611f0d565b9150600090505b94509492505050565b6000611f2061162d565b905080611f2c84611f60565b10156106d0578254600180820185556000858152602080822090930193909355938401805494850181558252902090910155565b80546000908103611f7357506000919050565b815482906118469060019061240e565b919050565b60005b83811015611fa3578181015183820152602001611f8b565b50506000910152565b60008151808452611fc4816020860160208601611f88565b601f01601f19169290920160200192915050565b602081526000610eec6020830184611fac565b80356001600160a01b0381168114611f8357600080fd5b6000806040838503121561201557600080fd5b61201e83611feb565b946020939093013593505050565b60008083601f84011261203e57600080fd5b50813567ffffffffffffffff81111561205657600080fd5b60208301915083602082850101111561172757600080fd5b60008060006040848603121561208357600080fd5b83359250602084013567ffffffffffffffff8111156120a157600080fd5b6120ad8682870161202c565b9497909650939450505050565b6000806000606084860312156120cf57600080fd5b6120d884611feb565b92506120e660208501611feb565b9150604084013590509250925092565b60006020828403121561210857600080fd5b5035919050565b60006020828403121561212157600080fd5b610eec82611feb565b6000806040838503121561213d57600080fd5b50508035926020909101359150565b6000806020838503121561215f57600080fd5b823567ffffffffffffffff81111561217657600080fd5b6121828582860161202c565b90969095509350505050565b6000806000606084860312156121a357600080fd5b6121ac84611feb565b95602085013595506040909401359392505050565b60008151808452602080850194506020840160005b838110156121f2578151875295820195908201906001016121d6565b509495945050505050565b60ff60f81b8816815260e06020820152600061221c60e0830189611fac565b828103604084015261222e8189611fac565b606084018890526001600160a01b038716608085015260a0840186905283810360c0850152905061225f81856121c1565b9a9950505050505050505050565b602081526000610eec60208301846121c1565b6000806040838503121561229357600080fd5b61229c83611feb565b91506122aa60208401611feb565b90509250929050565b600181811c908216806122c757607f821691505b6020821081036122e757634e487b7160e01b600052602260045260246000fd5b50919050565b6000602082840312156122ff57600080fd5b81518015158114610eec57600080fd5b634e487b7160e01b600052601160045260246000fd5b808201808211156106a3576106a361230f565b6000825161234a818460208701611f88565b9190910192915050565b60008083548160018260011c9150600183168061237257607f831692505b6020808410820361239157634e487b7160e01b86526022600452602486fd5b8180156123a557600181146123ba576123e7565b60ff19861689528415158502890196506123e7565b60008a81526020902060005b868110156123df5781548b8201529085019083016123c6565b505084890196505b509498975050505050505050565b6000600182016124075761240761230f565b5060010190565b818103818111156106a3576106a361230f565b634e487b7160e01b600052603260045260246000fd5b80820281158282048414176106a3576106a361230f565b60008261246b57634e487b7160e01b600052601260045260246000fd5b500490565b634e487b7160e01b600052602160045260246000fd5b828152604060208201526000610db86040830184611fac565b6000602082840312156124b157600080fd5b505191905056fea2646970667358221220596381da321665c02aca68b51e26de63736f8b4b9764d5d449f0d6c0931ef88164736f6c63430008170033","linkReferences":{}},"methodIdentifiers":{"accrue(uint256)":"744f4cf6","allowance(address,address)":"dd62ed3e","approve(address,uint256)":"095ea7b3","approveStaker(bytes)":"5c1b6119","balanceOf(address)":"70a08231","balanceOfAt(address,uint256)":"4ee2cd7e","canAccrue()":"c7029999","claim()":"4e71d92d","claimPartial(uint256,uint256)":"4854424e","decimals()":"313ce567","decreaseAllowance(address,uint256)":"a457c2d7","distributor()":"bfe10928","eip712Domain()":"84b0196e","getCurrentSnapshotId()":"5439ad86","getLifetimeRewards(address)":"7d3f0e7d","getPendingRewards(address)":"f6ed2017","getRewardSnapshots()":"9320e605","getStakeSignatureDigest()":"6afc62e4","getTimeUntilNextSnapshot()":"ed56e430","increaseAllowance(address,uint256)":"39509351","isApprovedStaker(address)":"42f667ec","lastSnapshotTime()":"be74baf2","message()":"e21f37ce","name()":"06fdde03","nextClaimId(address)":"357f5d7a","owner()":"8da5cb5b","renounceOwnership()":"715018a6","rewardAt(uint256)":"7e9d05f7","rewardOfAt(address,uint256)":"c2d4413c","rewardOfInRange(address,uint256,uint256)":"7c4e4ab3","rewardSnapshots(uint256)":"5d648588","rewardToken()":"f7c618c1","setDistributor(address)":"75619ab5","setSnapshotDelay(uint256)":"2ad2b7e1","snapshotDelay()":"5e94d4e8","stake(uint256)":"a694fc3a","stake(uint256,bytes)":"0e89439b","stakeToken()":"51ed6a30","symbol()":"95d89b41","totalSupply()":"18160ddd","totalSupplyAt(uint256)":"981b24d0","transfer(address,uint256)":"a9059cbb","transferFrom(address,address,uint256)":"23b872dd","transferOwnership(address)":"f2fde38b","unstake(uint256)":"2e17de78"},"id":63}