{"abi":[{"type":"constructor","inputs":[{"name":"_name","type":"string","internalType":"string"},{"name":"_symbol","type":"string","internalType":"string"},{"name":"_rewardToken","type":"address","internalType":"contract IERC20"},{"name":"_stakeToken","type":"address","internalType":"contract IERC20"},{"name":"_distributor","type":"address","internalType":"address"},{"name":"_snapshotDelay","type":"uint256","internalType":"uint256"}],"stateMutability":"nonpayable"},{"type":"function","name":"accrue","inputs":[{"name":"amount","type":"uint256","internalType":"uint256"}],"outputs":[],"stateMutability":"nonpayable"},{"type":"function","name":"allowance","inputs":[{"name":"owner","type":"address","internalType":"address"},{"name":"spender","type":"address","internalType":"address"}],"outputs":[{"name":"","type":"uint256","internalType":"uint256"}],"stateMutability":"view"},{"type":"function","name":"approve","inputs":[{"name":"spender","type":"address","internalType":"address"},{"name":"amount","type":"uint256","internalType":"uint256"}],"outputs":[{"name":"","type":"bool","internalType":"bool"}],"stateMutability":"nonpayable"},{"type":"function","name":"balanceOf","inputs":[{"name":"account","type":"address","internalType":"address"}],"outputs":[{"name":"","type":"uint256","internalType":"uint256"}],"stateMutability":"view"},{"type":"function","name":"balanceOfAt","inputs":[{"name":"account","type":"address","internalType":"address"},{"name":"snapshotId","type":"uint256","internalType":"uint256"}],"outputs":[{"name":"","type":"uint256","internalType":"uint256"}],"stateMutability":"view"},{"type":"function","name":"canAccrue","inputs":[],"outputs":[{"name":"","type":"bool","internalType":"bool"}],"stateMutability":"view"},{"type":"function","name":"claim","inputs":[],"outputs":[],"stateMutability":"nonpayable"},{"type":"function","name":"claimPartial","inputs":[{"name":"startSnapshotId","type":"uint256","internalType":"uint256"},{"name":"endSnapshotId","type":"uint256","internalType":"uint256"}],"outputs":[],"stateMutability":"nonpayable"},{"type":"function","name":"decimals","inputs":[],"outputs":[{"name":"","type":"uint8","internalType":"uint8"}],"stateMutability":"view"},{"type":"function","name":"decreaseAllowance","inputs":[{"name":"spender","type":"address","internalType":"address"},{"name":"subtractedValue","type":"uint256","internalType":"uint256"}],"outputs":[{"name":"","type":"bool","internalType":"bool"}],"stateMutability":"nonpayable"},{"type":"function","name":"distributor","inputs":[],"outputs":[{"name":"","type":"address","internalType":"address"}],"stateMutability":"view"},{"type":"function","name":"getCurrentSnapshotId","inputs":[],"outputs":[{"name":"","type":"uint256","internalType":"uint256"}],"stateMutability":"view"},{"type":"function","name":"getLifetimeRewards","inputs":[{"name":"account","type":"address","internalType":"address"}],"outputs":[{"name":"","type":"uint256","internalType":"uint256"}],"stateMutability":"view"},{"type":"function","name":"getPendingRewards","inputs":[{"name":"account","type":"address","internalType":"address"}],"outputs":[{"name":"","type":"uint256","internalType":"uint256"}],"stateMutability":"view"},{"type":"function","name":"getRewardSnapshots","inputs":[],"outputs":[{"name":"","type":"uint256[]","internalType":"uint256[]"}],"stateMutability":"view"},{"type":"function","name":"getTimeUntilNextSnapshot","inputs":[],"outputs":[{"name":"","type":"uint256","internalType":"uint256"}],"stateMutability":"view"},{"type":"function","name":"increaseAllowance","inputs":[{"name":"spender","type":"address","internalType":"address"},{"name":"addedValue","type":"uint256","internalType":"uint256"}],"outputs":[{"name":"","type":"bool","internalType":"bool"}],"stateMutability":"nonpayable"},{"type":"function","name":"lastSnapshotTime","inputs":[],"outputs":[{"name":"","type":"uint256","internalType":"uint256"}],"stateMutability":"view"},{"type":"function","name":"name","inputs":[],"outputs":[{"name":"","type":"string","internalType":"string"}],"stateMutability":"view"},{"type":"function","name":"nextClaimId","inputs":[{"name":"","type":"address","internalType":"address"}],"outputs":[{"name":"","type":"uint256","internalType":"uint256"}],"stateMutability":"view"},{"type":"function","name":"owner","inputs":[],"outputs":[{"name":"","type":"address","internalType":"address"}],"stateMutability":"view"},{"type":"function","name":"renounceOwnership","inputs":[],"outputs":[],"stateMutability":"nonpayable"},{"type":"function","name":"rewardAt","inputs":[{"name":"snapshotId","type":"uint256","internalType":"uint256"}],"outputs":[{"name":"","type":"uint256","internalType":"uint256"}],"stateMutability":"view"},{"type":"function","name":"rewardOfAt","inputs":[{"name":"account","type":"address","internalType":"address"},{"name":"snapshotId","type":"uint256","internalType":"uint256"}],"outputs":[{"name":"","type":"uint256","internalType":"uint256"}],"stateMutability":"view"},{"type":"function","name":"rewardOfInRange","inputs":[{"name":"account","type":"address","internalType":"address"},{"name":"startSnapshotId","type":"uint256","internalType":"uint256"},{"name":"endSnapshotId","type":"uint256","internalType":"uint256"}],"outputs":[{"name":"","type":"uint256","internalType":"uint256"}],"stateMutability":"view"},{"type":"function","name":"rewardSnapshots","inputs":[{"name":"","type":"uint256","internalType":"uint256"}],"outputs":[{"name":"","type":"uint256","internalType":"uint256"}],"stateMutability":"view"},{"type":"function","name":"rewardToken","inputs":[],"outputs":[{"name":"","type":"address","internalType":"contract IERC20"}],"stateMutability":"view"},{"type":"function","name":"setDistributor","inputs":[{"name":"newDistributor","type":"address","internalType":"address"}],"outputs":[],"stateMutability":"nonpayable"},{"type":"function","name":"setSnapshotDelay","inputs":[{"name":"newSnapshotDelay","type":"uint256","internalType":"uint256"}],"outputs":[],"stateMutability":"nonpayable"},{"type":"function","name":"snapshotDelay","inputs":[],"outputs":[{"name":"","type":"uint256","internalType":"uint256"}],"stateMutability":"view"},{"type":"function","name":"stake","inputs":[{"name":"amount","type":"uint256","internalType":"uint256"}],"outputs":[],"stateMutability":"nonpayable"},{"type":"function","name":"stakeToken","inputs":[],"outputs":[{"name":"","type":"address","internalType":"contract IERC20"}],"stateMutability":"view"},{"type":"function","name":"symbol","inputs":[],"outputs":[{"name":"","type":"string","internalType":"string"}],"stateMutability":"view"},{"type":"function","name":"totalSupply","inputs":[],"outputs":[{"name":"","type":"uint256","internalType":"uint256"}],"stateMutability":"view"},{"type":"function","name":"totalSupplyAt","inputs":[{"name":"snapshotId","type":"uint256","internalType":"uint256"}],"outputs":[{"name":"","type":"uint256","internalType":"uint256"}],"stateMutability":"view"},{"type":"function","name":"transfer","inputs":[{"name":"","type":"address","internalType":"address"},{"name":"","type":"uint256","internalType":"uint256"}],"outputs":[{"name":"","type":"bool","internalType":"bool"}],"stateMutability":"pure"},{"type":"function","name":"transferFrom","inputs":[{"name":"","type":"address","internalType":"address"},{"name":"","type":"address","internalType":"address"},{"name":"","type":"uint256","internalType":"uint256"}],"outputs":[{"name":"","type":"bool","internalType":"bool"}],"stateMutability":"pure"},{"type":"function","name":"transferOwnership","inputs":[{"name":"newOwner","type":"address","internalType":"address"}],"outputs":[],"stateMutability":"nonpayable"},{"type":"function","name":"unstake","inputs":[{"name":"amount","type":"uint256","internalType":"uint256"}],"outputs":[],"stateMutability":"nonpayable"},{"type":"event","name":"Approval","inputs":[{"name":"owner","type":"address","indexed":true,"internalType":"address"},{"name":"spender","type":"address","indexed":true,"internalType":"address"},{"name":"value","type":"uint256","indexed":false,"internalType":"uint256"}],"anonymous":false},{"type":"event","name":"DistributorChanged","inputs":[{"name":"newDistributor","type":"address","indexed":false,"internalType":"address"}],"anonymous":false},{"type":"event","name":"OwnershipTransferred","inputs":[{"name":"previousOwner","type":"address","indexed":true,"internalType":"address"},{"name":"newOwner","type":"address","indexed":true,"internalType":"address"}],"anonymous":false},{"type":"event","name":"Snapshot","inputs":[{"name":"id","type":"uint256","indexed":false,"internalType":"uint256"}],"anonymous":false},{"type":"event","name":"SnapshotDelayChanged","inputs":[{"name":"newSnapshotDelay","type":"uint256","indexed":false,"internalType":"uint256"}],"anonymous":false},{"type":"event","name":"Transfer","inputs":[{"name":"from","type":"address","indexed":true,"internalType":"address"},{"name":"to","type":"address","indexed":true,"internalType":"address"},{"name":"value","type":"uint256","indexed":false,"internalType":"uint256"}],"anonymous":false},{"type":"error","name":"CannotAccrueWithZeroStakedSupply","inputs":[]},{"type":"error","name":"CannotAccrueZero","inputs":[]},{"type":"error","name":"CannotClaimFromPastSnapshots","inputs":[]},{"type":"error","name":"InvalidSnapshotId","inputs":[]},{"type":"error","name":"MustBeDistributor","inputs":[]},{"type":"error","name":"NonExistentSnapshotId","inputs":[]},{"type":"error","name":"SnapshotDelayNotPassed","inputs":[]},{"type":"error","name":"TransfersNotAllowed","inputs":[]}],"bytecode":{"object":"0x60c06040523480156200001157600080fd5b5060405162001e5a38038062001e5a8339810160408190526200003491620001cd565b858562000041336200009c565b60046200004f838262000312565b5060056200005e828262000312565b50506001600a55506001600160a01b0393841660805291831660a052600b80546001600160a01b0319169190931617909155600e5550620003de9050565b600080546001600160a01b038381166001600160a01b0319831681178455604051919092169283917f8be0079c531659141344cd1fd0a4f28419497f9722a3daafe3b4186f6b6457e09190a35050565b634e487b7160e01b600052604160045260246000fd5b600082601f8301126200011457600080fd5b81516001600160401b0380821115620001315762000131620000ec565b604051601f8301601f19908116603f011681019082821181831017156200015c576200015c620000ec565b81604052838152602092508660208588010111156200017a57600080fd5b600091505b838210156200019e57858201830151818301840152908201906200017f565b6000602085830101528094505050505092915050565b6001600160a01b0381168114620001ca57600080fd5b50565b60008060008060008060c08789031215620001e757600080fd5b86516001600160401b0380821115620001ff57600080fd5b6200020d8a838b0162000102565b975060208901519150808211156200022457600080fd5b506200023389828a0162000102565b95505060408701516200024681620001b4565b60608801519094506200025981620001b4565b60808801519093506200026c81620001b4565b8092505060a087015190509295509295509295565b600181811c908216806200029657607f821691505b602082108103620002b757634e487b7160e01b600052602260045260246000fd5b50919050565b601f8211156200030d576000816000526020600020601f850160051c81016020861015620002e85750805b601f850160051c820191505b818110156200030957828155600101620002f4565b5050505b505050565b81516001600160401b038111156200032e576200032e620000ec565b62000346816200033f845462000281565b84620002bd565b602080601f8311600181146200037e5760008415620003655750858301515b600019600386901b1c1916600185901b17855562000309565b600085815260208120601f198616915b82811015620003af578886015182559484019460019091019084016200038e565b5085821015620003ce5787850151600019600388901b60f8161c191681555b5050505050600190811b01905550565b60805160a051611a3a62000420600039600081816103450152818161068001526114300152600081816105250152818161090d015261112b0152611a3a6000f3fe608060405234801561001057600080fd5b506004361061023d5760003560e01c806375619ab51161013b578063a9059cbb116100b8578063dd62ed3e1161007c578063dd62ed3e146104df578063ed56e430146104f2578063f2fde38b146104fa578063f6ed20171461050d578063f7c618c11461052057600080fd5b8063a9059cbb1461049a578063be74baf2146104a8578063bfe10928146104b1578063c2d4413c146104c4578063c7029999146104d757600080fd5b80639320e605116100ff5780639320e6051461044457806395d89b4114610459578063981b24d014610461578063a457c2d714610474578063a694fc3a1461048757600080fd5b806375619ab5146103e75780637c4e4ab3146103fa5780637d3f0e7d1461040d5780637e9d05f7146104205780638da5cb5b1461043357600080fd5b80634854424e116101c95780635d6485881161018d5780635d648588146103875780635e94d4e81461039a57806370a08231146103a3578063715018a6146103cc578063744f4cf6146103d457600080fd5b80634854424e146103125780634e71d92d146103255780634ee2cd7e1461032d57806351ed6a30146103405780635439ad861461037f57600080fd5b80632ad2b7e1116102105780632ad2b7e1146102a85780632e17de78146102bd578063313ce567146102d0578063357f5d7a146102df57806339509351146102ff57600080fd5b806306fdde0314610242578063095ea7b31461026057806318160ddd1461028357806323b872dd14610295575b600080fd5b61024a610547565b6040516102579190611738565b60405180910390f35b61027361026e36600461179e565b6105d9565b6040519015158152602001610257565b6003545b604051908152602001610257565b6102736102a33660046117c8565b6105f3565b6102bb6102b6366004611804565b61060e565b005b6102bb6102cb366004611804565b610652565b60405160128152602001610257565b6102876102ed36600461181d565b600c6020526000908152604090205481565b61027361030d36600461179e565b610703565b6102bb610320366004611838565b610725565b6102bb610776565b61028761033b36600461179e565b6107b4565b6103677f000000000000000000000000000000000000000000000000000000000000000081565b6040516001600160a01b039091168152602001610257565b61028761080d565b610287610395366004611804565b61081c565b610287600e5481565b6102876103b136600461181d565b6001600160a01b031660009081526001602052604090205490565b6102bb61083d565b6102bb6103e2366004611804565b61084f565b6102bb6103f536600461181d565b6109c4565b61028761040836600461185a565b610a1a565b61028761041b36600461181d565b610aab565b61028761042e366004611804565b610abb565b6000546001600160a01b0316610367565b61044c610b0f565b604051610257919061188d565b61024a610b66565b61028761046f366004611804565b610b75565b61027361048236600461179e565b610ba0565b6102bb610495366004611804565b610c2b565b6102736102a336600461179e565b610287600f5481565b600b54610367906001600160a01b031681565b6102876104d236600461179e565b610c47565b610273610ca3565b6102876104ed3660046118d1565b610cbd565b610287610ce8565b6102bb61050836600461181d565b610d18565b61028761051b36600461181d565b610d8e565b6103677f000000000000000000000000000000000000000000000000000000000000000081565b60606004805461055690611904565b80601f016020809104026020016040519081016040528092919081815260200182805461058290611904565b80156105cf5780601f106105a4576101008083540402835291602001916105cf565b820191906000526020600020905b8154815290600101906020018083116105b257829003601f168201915b5050505050905090565b6000336105e7818585610dc0565b60019150505b92915050565b600060405163ab064ad360e01b815260040160405180910390fd5b610616610ee5565b600e8190556040518181527fac73a90e92241d825f00fe635380c3a52d9764a66fe05df6ba465ca269cdcf8e906020015b60405180910390a150565b61065a610f3f565b6106643382610f98565b60405163a9059cbb60e01b8152336004820152602481018290527f00000000000000000000000000000000000000000000000000000000000000006001600160a01b03169063a9059cbb906044016020604051808303816000875af11580156106d1573d6000803e3d6000fd5b505050506040513d601f19601f820116820180604052508101906106f5919061193e565b506107006001600a55565b50565b6000336105e78185856107168383610cbd565b6107209190611976565b610dc0565b61072d610f3f565b336000908152600c602052604090205482101561075d5760405163045587fd60e31b815260040160405180910390fd5b6107683383836110d5565b6107726001600a55565b5050565b61077e610f3f565b600061078861119f565b336000818152600c60205260409020549192506107a69082846110d5565b50506107b26001600a55565b565b6001600160a01b0382166000908152600660205260408120819081906107db9085906111aa565b9150915081610802576001600160a01b038516600090815260016020526040902054610804565b805b95945050505050565b600061081761119f565b905090565b600d818154811061082c57600080fd5b600091825260209091200154905081565b610845610ee5565b6107b260006112a0565b610857610f3f565b600b546001600160a01b031633146108825760405163086bf14760e21b815260040160405180910390fd5b806000036108a35760405163010cb85960e41b815260040160405180910390fd5b6003546000036108c657604051630355041f60e11b815260040160405180910390fd5b6108ce610ca3565b6108eb57604051636f407c6b60e11b815260040160405180910390fd5b6040516323b872dd60e01b8152336004820152306024820152604481018290527f00000000000000000000000000000000000000000000000000000000000000006001600160a01b0316906323b872dd906064016020604051808303816000875af115801561095e573d6000803e3d6000fd5b505050506040513d601f19601f82011682018060405250810190610982919061193e565b5042600f55600d80546001810182556000919091527fd7b6990105719101dabeb77144f2a3385c8033acd3af97e9423a695e81ad1eb5018190556106f56112f0565b6109cc610ee5565b600b80546001600160a01b0319166001600160a01b0383169081179091556040519081527fe37acc13f5ed9d0cc83c2842e093fe5a494d5b8fb5b1db06356b327081832f5290602001610647565b600082600003610a3d576040516342f66ec960e01b815260040160405180910390fd5b81831180610a515750610a4e61119f565b82115b15610a6f57604051630ea8635b60e41b815260040160405180910390fd5b6000835b838111610aa257610a84868261134a565b610a8e9083611976565b915080610a9a81611989565b915050610a73565b50949350505050565b60006105ed82600161040861119f565b600081600003610ade576040516342f66ec960e01b815260040160405180910390fd5b610ae661119f565b821115610b0657604051630ea8635b60e41b815260040160405180910390fd5b6105ed8261137c565b6060600d8054806020026020016040519081016040528092919081815260200182805480156105cf57602002820191906000526020600020905b815481526020019060010190808311610b49575050505050905090565b60606005805461055690611904565b6000806000610b858460076111aa565b9150915081610b9657600354610b98565b805b949350505050565b60003381610bae8286610cbd565b905083811015610c135760405162461bcd60e51b815260206004820152602560248201527f45524332303a2064656372656173656420616c6c6f77616e63652062656c6f77604482015264207a65726f60d81b60648201526084015b60405180910390fd5b610c208286868403610dc0565b506001949350505050565b610c33610f3f565b610c3d33826113ad565b6107006001600a55565b600081600003610c6a576040516342f66ec960e01b815260040160405180910390fd5b610c7261119f565b821115610c9257604051630ea8635b60e41b815260040160405180910390fd5b610c9c838361134a565b9392505050565b6000600e54600f54610cb59190611976565b421015905090565b6001600160a01b03918216600090815260026020908152604080832093909416825291909152205490565b6000610cf2610ca3565b15610cfd5750600090565b42600e54600f54610d0e9190611976565b61081791906119a2565b610d20610ee5565b6001600160a01b038116610d855760405162461bcd60e51b815260206004820152602660248201527f4f776e61626c653a206e6577206f776e657220697320746865207a65726f206160448201526564647265737360d01b6064820152608401610c0a565b610700816112a0565b600080610d9961119f565b6001600160a01b0384166000908152600c6020526040902054909150610b98848284610a1a565b6001600160a01b038316610e225760405162461bcd60e51b8152602060048201526024808201527f45524332303a20617070726f76652066726f6d20746865207a65726f206164646044820152637265737360e01b6064820152608401610c0a565b6001600160a01b038216610e835760405162461bcd60e51b815260206004820152602260248201527f45524332303a20617070726f766520746f20746865207a65726f206164647265604482015261737360f01b6064820152608401610c0a565b6001600160a01b0383811660008181526002602090815260408083209487168084529482529182902085905590518481527f8c5be1e5ebec7d5bd14f71427d1e84f3dd0314c0f7b2291e5b200ac8c7c3b92591015b60405180910390a3505050565b6000546001600160a01b031633146107b25760405162461bcd60e51b815260206004820181905260248201527f4f776e61626c653a2063616c6c6572206973206e6f7420746865206f776e65726044820152606401610c0a565b6002600a5403610f915760405162461bcd60e51b815260206004820152601f60248201527f5265656e7472616e637947756172643a207265656e7472616e742063616c6c006044820152606401610c0a565b6002600a55565b6001600160a01b038216610ff85760405162461bcd60e51b815260206004820152602160248201527f45524332303a206275726e2066726f6d20746865207a65726f206164647265736044820152607360f81b6064820152608401610c0a565b611004826000836114a8565b6001600160a01b038216600090815260016020526040902054818110156110785760405162461bcd60e51b815260206004820152602260248201527f45524332303a206275726e20616d6f756e7420657863656564732062616c616e604482015261636560f01b6064820152608401610c0a565b6001600160a01b03831660008181526001602090815260408083208686039055600380548790039055518581529192917fddf252ad1be2c89b69c2b068fc378daa952ba7f163c4a11628f55a4df523b3ef9101610ed8565b505050565b60006110e2848484610a1a565b90506110ef826001611976565b6001600160a01b038581166000818152600c60205260409081902093909355915163a9059cbb60e01b81526004810192909252602482018390527f0000000000000000000000000000000000000000000000000000000000000000169063a9059cbb906044016020604051808303816000875af1158015611174573d6000803e3d6000fd5b505050506040513d601f19601f82011682018060405250810190611198919061193e565b5050505050565b600061081760095490565b600080600084116111f65760405162461bcd60e51b815260206004820152601660248201527504552433230536e617073686f743a20696420697320360541b6044820152606401610c0a565b6111fe61119f565b84111561124d5760405162461bcd60e51b815260206004820152601d60248201527f4552433230536e617073686f743a206e6f6e6578697374656e742069640000006044820152606401610c0a565b600061125984866114f0565b84549091508103611271576000809250925050611299565b6001846001018281548110611288576112886119b5565b906000526020600020015492509250505b9250929050565b600080546001600160a01b038381166001600160a01b0319831681178455604051919092169283917f8be0079c531659141344cd1fd0a4f28419497f9722a3daafe3b4186f6b6457e09190a35050565b6000611300600980546001019055565b600061130a61119f565b90507f8030e83b04d87bef53480e26263266d6ca66863aa8506aca6f2559d18aa1cb678160405161133d91815260200190565b60405180910390a1919050565b600061135582610b75565b61135f84846107b4565b6113688461137c565b61137291906119cb565b610c9c91906119e2565b6000600d61138b6001846119a2565b8154811061139b5761139b6119b5565b90600052602060002001549050919050565b6001600160a01b0382166000908152600c602052604081205490036114045760006113d661119f565b9050600081116113e75760016113e9565b805b6001600160a01b0384166000908152600c6020526040902055505b6040516323b872dd60e01b81526001600160a01b038381166004830152306024830152604482018390527f000000000000000000000000000000000000000000000000000000000000000016906323b872dd906064016020604051808303816000875af1158015611479573d6000803e3d6000fd5b505050506040513d601f19601f8201168201806040525081019061149d919061193e565b50610772338261159d565b6001600160a01b0383166114c7576114bf8261166a565b6110d061169d565b6001600160a01b0382166114de576114bf8361166a565b6114e78361166a565b6110d08261166a565b81546000908103611503575060006105ed565b82546000905b8082101561155057600061151d83836116ab565b6000878152602090209091508590820154111561153c5780915061154a565b611547816001611976565b92505b50611509565b60008211801561157c5750836115798661156b6001866119a2565b600091825260209091200190565b54145b156115955761158c6001836119a2565b925050506105ed565b5090506105ed565b6001600160a01b0382166115f35760405162461bcd60e51b815260206004820152601f60248201527f45524332303a206d696e7420746f20746865207a65726f2061646472657373006044820152606401610c0a565b6115ff600083836114a8565b80600360008282546116119190611976565b90915550506001600160a01b0382166000818152600160209081526040808320805486019055518481527fddf252ad1be2c89b69c2b068fc378daa952ba7f163c4a11628f55a4df523b3ef910160405180910390a35050565b6001600160a01b038116600090815260066020908152604080832060019092529091205461070091906116c6565b6116c6565b6107b2600761169860035490565b60006116ba60028484186119e2565b610c9c90848416611976565b60006116d061119f565b9050806116dc84611710565b10156110d0578254600180820185556000858152602080822090930193909355938401805494850181558252902090910155565b8054600090810361172357506000919050565b8154829061138b906001906119a2565b919050565b60006020808352835180602085015260005b818110156117665785810183015185820160400152820161174a565b506000604082860101526040601f19601f8301168501019250505092915050565b80356001600160a01b038116811461173357600080fd5b600080604083850312156117b157600080fd5b6117ba83611787565b946020939093013593505050565b6000806000606084860312156117dd57600080fd5b6117e684611787565b92506117f460208501611787565b9150604084013590509250925092565b60006020828403121561181657600080fd5b5035919050565b60006020828403121561182f57600080fd5b610c9c82611787565b6000806040838503121561184b57600080fd5b50508035926020909101359150565b60008060006060848603121561186f57600080fd5b61187884611787565b95602085013595506040909401359392505050565b6020808252825182820181905260009190848201906040850190845b818110156118c5578351835292840192918401916001016118a9565b50909695505050505050565b600080604083850312156118e457600080fd5b6118ed83611787565b91506118fb60208401611787565b90509250929050565b600181811c9082168061191857607f821691505b60208210810361193857634e487b7160e01b600052602260045260246000fd5b50919050565b60006020828403121561195057600080fd5b81518015158114610c9c57600080fd5b634e487b7160e01b600052601160045260246000fd5b808201808211156105ed576105ed611960565b60006001820161199b5761199b611960565b5060010190565b818103818111156105ed576105ed611960565b634e487b7160e01b600052603260045260246000fd5b80820281158282048414176105ed576105ed611960565b6000826119ff57634e487b7160e01b600052601260045260246000fd5b50049056fea26469706673582212204f662e2c983f31a31efc57098e9d99348eccadf6d96d580174641c6bee5f820264736f6c63430008170033","linkReferences":{}},"methodIdentifiers":{"accrue(uint256)":"744f4cf6","allowance(address,address)":"dd62ed3e","approve(address,uint256)":"095ea7b3","balanceOf(address)":"70a08231","balanceOfAt(address,uint256)":"4ee2cd7e","canAccrue()":"c7029999","claim()":"4e71d92d","claimPartial(uint256,uint256)":"4854424e","decimals()":"313ce567","decreaseAllowance(address,uint256)":"a457c2d7","distributor()":"bfe10928","getCurrentSnapshotId()":"5439ad86","getLifetimeRewards(address)":"7d3f0e7d","getPendingRewards(address)":"f6ed2017","getRewardSnapshots()":"9320e605","getTimeUntilNextSnapshot()":"ed56e430","increaseAllowance(address,uint256)":"39509351","lastSnapshotTime()":"be74baf2","name()":"06fdde03","nextClaimId(address)":"357f5d7a","owner()":"8da5cb5b","renounceOwnership()":"715018a6","rewardAt(uint256)":"7e9d05f7","rewardOfAt(address,uint256)":"c2d4413c","rewardOfInRange(address,uint256,uint256)":"7c4e4ab3","rewardSnapshots(uint256)":"5d648588","rewardToken()":"f7c618c1","setDistributor(address)":"75619ab5","setSnapshotDelay(uint256)":"2ad2b7e1","snapshotDelay()":"5e94d4e8","stake(uint256)":"a694fc3a","stakeToken()":"51ed6a30","symbol()":"95d89b41","totalSupply()":"18160ddd","totalSupplyAt(uint256)":"981b24d0","transfer(address,uint256)":"a9059cbb","transferFrom(address,address,uint256)":"23b872dd","transferOwnership(address)":"f2fde38b","unstake(uint256)":"2e17de78"},"id":64}